{
  "contractName": "Sample",
  "abi": [
    {
      "inputs": [
        {
          "internalType": "int256",
          "name": "_a",
          "type": "int256"
        },
        {
          "internalType": "int256",
          "name": "_b",
          "type": "int256"
        }
      ],
      "name": "Sum",
      "outputs": [],
      "stateMutability": "nonpayable",
      "type": "function"
    },
    {
      "inputs": [],
      "name": "getSum",
      "outputs": [
        {
          "internalType": "int256",
          "name": "",
          "type": "int256"
        }
      ],
      "stateMutability": "view",
      "type": "function"
    }
  ],
  "bytecode": "0x608060405234801561001057600080fd5b50610232806100206000396000f3fe608060405234801561001057600080fd5b50600436106100365760003560e01c8063569c5f6d1461003b578063eb638f1214610059575b600080fd5b610043610075565b60405161005091906100ad565b60405180910390f35b610073600480360381019061006e91906100f9565b61007e565b005b60008054905090565b808261008a9190610168565b6000819055505050565b6000819050919050565b6100a781610094565b82525050565b60006020820190506100c2600083018461009e565b92915050565b600080fd5b6100d681610094565b81146100e157600080fd5b50565b6000813590506100f3816100cd565b92915050565b600080604083850312156101105761010f6100c8565b5b600061011e858286016100e4565b925050602061012f858286016100e4565b9150509250929050565b7f4e487b7100000000000000000000000000000000000000000000000000000000600052601160045260246000fd5b600061017382610094565b915061017e83610094565b9250817f7fffffffffffffffffffffffffffffffffffffffffffffffffffffffffffffff038313600083121516156101b9576101b8610139565b5b817f80000000000000000000000000000000000000000000000000000000000000000383126000831216156101f1576101f0610139565b5b82820190509291505056fea2646970667358221220244eb47e022b7cde22717a7c5367ebe05f18343cc8bfbb9a6c2f60c5a0d222a264736f6c634300080b0033",
  "immutableReferences": {},
  "source": "\r\n//SPDX-License-Identifier: GPL-3.0\r\n\r\npragma solidity ^0.8.0;\r\n\r\ncontract Sample{\r\n\r\n    int sum;\r\n\r\n    function Sum(int _a, int _b)public{\r\n        sum = _a + _b;\r\n    } \r\n\r\n    function getSum() public view returns(int){\r\n        return sum;\r\n    }\r\n\r\n\r\n}\r\n\r\n\r\n\r\n",
  "sourcePath": "C:\\Users\\shayk\\Downloads\\ethereum-1\\contracts\\sample.sol",
  "compiler": {
    "name": "solc",
    "version": "0.8.11+commit.d7f03943.Emscripten.clang"
  },
  "schemaVersion": "3.4.4",
  "updatedAt": "2022-05-12T15:13:08.745Z",
  "devdoc": {
    "kind": "dev",
    "methods": {},
    "version": 1
  },
  "userdoc": {
    "kind": "user",
    "methods": {},
    "version": 1
  }
}