{
  "contractName": "Sample",
  "abi": [
    {
      "inputs": [
        {
          "internalType": "uint256",
          "name": "_tokens",
          "type": "uint256"
        }
      ],
      "stateMutability": "nonpayable",
      "type": "constructor"
    },
    {
      "inputs": [
        {
          "internalType": "uint256",
          "name": "",
          "type": "uint256"
        }
      ],
      "name": "noOfPeople",
      "outputs": [
        {
          "internalType": "uint256",
          "name": "",
          "type": "uint256"
        }
      ],
      "stateMutability": "view",
      "type": "function"
    },
    {
      "inputs": [],
      "name": "owner",
      "outputs": [
        {
          "internalType": "address",
          "name": "",
          "type": "address"
        }
      ],
      "stateMutability": "view",
      "type": "function"
    },
    {
      "inputs": [],
      "name": "tokens",
      "outputs": [
        {
          "internalType": "uint256",
          "name": "",
          "type": "uint256"
        }
      ],
      "stateMutability": "view",
      "type": "function"
    },
    {
      "inputs": [],
      "name": "giveTokens",
      "outputs": [],
      "stateMutability": "payable",
      "type": "function"
    },
    {
      "inputs": [],
      "name": "getBalance",
      "outputs": [
        {
          "internalType": "uint256",
          "name": "",
          "type": "uint256"
        }
      ],
      "stateMutability": "view",
      "type": "function"
    }
  ],
  "bytecode": "0x608060405234801561001057600080fd5b506040516103e33803806103e3833981810160405281019061003291906100ba565b336000806101000a81548173ffffffffffffffffffffffffffffffffffffffff021916908373ffffffffffffffffffffffffffffffffffffffff16021790555080600181905550506100e7565b600080fd5b6000819050919050565b61009781610084565b81146100a257600080fd5b50565b6000815190506100b48161008e565b92915050565b6000602082840312156100d0576100cf61007f565b5b60006100de848285016100a5565b91505092915050565b6102ed806100f66000396000f3fe60806040526004361061004a5760003560e01c806312065fe01461004f57806375e583a11461007a5780638da5cb5b146100b75780639d63848a146100e2578063ae909cff1461010d575b600080fd5b34801561005b57600080fd5b50610064610117565b60405161007191906101e2565b60405180910390f35b34801561008657600080fd5b506100a1600480360381019061009c919061022e565b610121565b6040516100ae91906101e2565b60405180910390f35b3480156100c357600080fd5b506100cc610145565b6040516100d9919061029c565b60405180910390f35b3480156100ee57600080fd5b506100f7610169565b60405161010491906101e2565b60405180910390f35b61011561016f565b005b6000600154905090565b6002818154811061013157600080fd5b906000526020600020016000915090505481565b60008054906101000a900473ffffffffffffffffffffffffffffffffffffffff1681565b60015481565b60008054906101000a900473ffffffffffffffffffffffffffffffffffffffff1673ffffffffffffffffffffffffffffffffffffffff163373ffffffffffffffffffffffffffffffffffffffff16146101c757600080fd5b565b6000819050919050565b6101dc816101c9565b82525050565b60006020820190506101f760008301846101d3565b92915050565b600080fd5b61020b816101c9565b811461021657600080fd5b50565b60008135905061022881610202565b92915050565b600060208284031215610244576102436101fd565b5b600061025284828501610219565b91505092915050565b600073ffffffffffffffffffffffffffffffffffffffff82169050919050565b60006102868261025b565b9050919050565b6102968161027b565b82525050565b60006020820190506102b1600083018461028d565b9291505056fea26469706673582212209d5412c5a329ad2e3d4a8723963658120a00ce59cad8d78401ca6fef9c016f0064736f6c634300080b0033",
  "immutableReferences": {},
  "source": "\r\n//SPDX-License-Identifier: GPL-3.0\r\n\r\npragma solidity ^0.8.0;\r\n\r\ncontract Sample{\r\n\r\n    address public owner;\r\n    uint public tokens;\r\n\r\n    uint[] public noOfPeople;\r\n\r\n    constructor(uint _tokens ) {\r\n        owner = msg.sender;\r\n        tokens = _tokens;\r\n    }\r\n\r\n    function giveTokens() public payable {\r\n        require(msg.sender == owner);\r\n    \r\n    }\r\n\r\n    function getBalance() public view returns(uint){\r\n        return tokens;\r\n    }\r\n\r\n\r\n\r\n\r\n\r\n\r\n\r\n\r\n\r\n\r\n\r\n\r\n\r\n\r\n\r\n\r\n\r\n}\r\n\r\n\r\n\r\n",
  "sourcePath": "C:\\Users\\shayk\\Downloads\\ethereum-1\\contracts\\sample.sol",
  "compiler": {
    "name": "solc",
    "version": "0.8.11+commit.d7f03943.Emscripten.clang"
  },
  "schemaVersion": "3.4.4",
  "updatedAt": "2022-05-11T22:26:59.123Z",
  "devdoc": {
    "kind": "dev",
    "methods": {},
    "version": 1
  },
  "userdoc": {
    "kind": "user",
    "methods": {},
    "version": 1
  }
}